:100000000C948E000C94B6000C94B6000C94B600C0
:100010000C94B6000C94B6000C94B6000C94B60088
:100020000C94B6000C94B6000C947D050C941A0444
:100030000C94B6000C94B6000C94B6000C94B60068
:100040000C94B6000C94B6000C94B6000C94B60058
:100050000C94B6000C94B6000C94B6000C94CE0030
:100060000C94B6000C94B6000C94B6000C94B60038
:100070000C94B6000C94B6000C94B6000C94B60028
:100080000C94B6000C94B6000C94B6000C94B60018
:100090000C94B6000C94B6000C94B6000C94B60008
:1000A0000C94B6000C94B6000C94B6001201000239
:1000B000EF020140032A0180000101020301556E95
:1000C0006B6E6F776E0055534220494F20426F612F
:1000D00072640004030904080B0002020201000913
:1000E00004000001020200000524001001052401A3
:1000F00001010424020605240600010705810310FE
:10010000004009040100020A000000070502024045
:1001100000000705830240000000110711241FBEE4
:10012000CFEFDAE0DEBFCDBF11E0A0E0B1E0EEE856
:10013000FFE002C005900D92A632B107D9F721E089
:10014000A6E2B1E001C01D92A639B207E1F710E0C6
:10015000CEE8D0E004C02197FE010E94BF07CD3851
:10016000D107C9F70E94BB000C94C5070C9400008E
:100170000895089508950E9479010E94BA008FE2BF
:1001800091E00E94FE050E94B800C0E0D0E00E940D
:10019000B9002097E1F30E940000F9CF1F920F925F
:1001A0000FB60F9211242F933F938F939F93AF938A
:1001B000BF938091270190912801A0912901B091CE
:1001C0002A013091260123E0230F2D3720F40196D8
:1001D000A11DB11D05C026E8230F0296A11DB11D6A
:1001E000209326018093270190932801A093290151
:1001F000B0932A0180912B0190912C01A0912D01A7
:10020000B0912E010196A11DB11D80932B019093F9
:100210002C01A0932D01B0932E01BF91AF919F911E
:100220008F913F912F910F900FBE0F901F901895B7
:100230003FB7F89480912B0190912C01A0912D0152
:10024000B0912E0126B5A89B05C02F3F19F001964D
:10025000A11DB11D3FBFBA2FA92F982F8827820F4C
:10026000911DA11DB11DBC01CD0142E0660F771F9C
:10027000881F991F4A95D1F708958F929F92AF9248
:10028000BF92CF92DF92EF92FF926B017C010E94AE
:1002900018014B015C01C114D104E104F10401F126
:1002A0000E941B060E941801DC01CB0188199909E4
:1002B000AA09BB09883E9340A105B10560F321E07E
:1002C000C21AD108E108F10888EE880E83E0981E72
:1002D000A11CB11CC114D104E104F10419F7DBCF56
:1002E000FF90EF90DF90CF90BF90AF909F908F9056
:1002F0000895789484B5826084BD84B5816084BD9E
:1003000085B5826085BD85B5816085BDEEE6F0E08E
:10031000808181608083E1E8F0E0108280818260EA
:100320008083808181608083E0E8F0E0808181606B
:100330008083E1E9F0E08081826080838081816058
:100340008083E0E9F0E0808181608083E1ECF0E08F
:1003500080818460808380818260808380818160ED
:100360008083E3ECF0E0808181608083E0ECF0E06A
:10037000808182608083E2ECF0E080818160808314
:10038000EAE7F0E0808184608083808182608083FE
:10039000808181608083808180688083089561503E
:1003A00030F02091F100FC0120830196F8CF2898CD
:1003B00084E68093370108954091320150913301D2
:1003C000209130013091310142175307B4F49091DC
:1003D000E8009570E1F39091E80092FD19C08093D8
:1003E000F100809132019091330101968F7399272A
:1003F000892B19F48EEF8093E8008091320190915F
:1004000033010196909333018093320181E0089586
:1004100080E00895CF92DF92EF92FF920F931F93A7
:10042000CF93DF931F92CDB7DEB7182F062FE42EA0
:10043000862F880F8E5F99830E94DC0183E00E94E3
:10044000DC01F12EC12E9981D92E8C2D8F198017A8
:1004500098F4F601E7FE02C0849101C080810E94F9
:10046000DC01182F80E00E94DC018123FFEFCF1A0E
:10047000DF0A8111EACF01C081E00F90DF91CF91B7
:100480001F910F91FF90EF90DF90CF900895809192
:10049000D70081608093D70080EA8093D80089B527
:1004A000806189BD89B5826089BD09B400FEFDCF38
:1004B00061E070E080E090E00E943D018091D80012
:1004C0008F7C80618093D8008091E000807F809352
:1004D000E0000895CF93DF931F92CDB7DEB7198266
:1004E000CE0101960E947E060E94AB07BE016F5F9F
:1004F0007F4F0E94260789810F90DF91CF91089549
:100500002FB7FC012083F89467706093E900089589
:10051000CF93DF931F92CDB7DEB7682FCE01019640
:100520000E9480028091F20099819FBF0F90DF911D
:10053000CF910895EF92FF920F931F93CF93DF9384
:100540001F92CDB7DEB790913601992311F057FF76
:1005500003C08FEF9FEF2AC08A017B01682FCE0175
:1005600001960E9480028091F20090E0A80180171D
:1005700091070CF4AC01842FF70194E6815038F018
:100580002898909337012091F1002193F7CF4115DE
:10059000510521F08091F200882321F089818FBFDD
:1005A000CA0104C08BE68093E800F8CF0F90DF917A
:1005B000CF911F910F91FF90EF900895CF93DF930C
:1005C0001F92CDB7DEB741E050E0BE016F5F7F4FB5
:1005D0000E949A02019719F4898190E002C08FEF7E
:1005E0009FEF0F90DF91CF910895CF93DF931F92EC
:1005F000CDB7DEB7682FCE0101960E9480029091A0
:10060000E800892F807295FF04C09091F20080E489
:10061000891B99819FBF0F90DF91CF9108955F92C1
:100620006F927F928F929F92AF92BF92CF92DF9202
:10063000EF92FF920F931F93CF93DF931F92CDB74B
:10064000DEB7582E6B01B42E052F80913601811133
:1006500003C08FEF9FEF78C08091340180FF05C009
:100660008091E00082608093E000EB2CF02EA12CC2
:100670008AEF982E852D8072782E852D8074682EB5
:100680009AE3892EE114F10409F456C0852D0E94E5
:10069000F502182F81110AC09A949920D1F261E0D5
:1006A00070E080E090E00E943D01ECCF90E0E81621
:1006B000F9060CF41E2D652DCE0101960E948002D4
:1006C0008091E80085FF35C0212F30E0E21AF30A5F
:1006D000772029F01150A8F01092F100FBCFF6011D
:1006E00057FE07C0115058F084918093F100319665
:1006F000F9CF115020F081918093F100FACFC20E12
:10070000D31EAA2019F08092E8000BC08091E80067
:1007100085FD09C08092E800AA24A394E114F104A5
:1007200041F0A12C06C0E114F10419F4611080928B
:10073000E80089818FBFA6CFA110A8CF5D9884E67D
:10074000809338018B2D902F0F90DF91CF911F91C7
:100750000F91FF90EF90DF90CF90BF90AF909F9060
:100760008F907F906F905F9008951092E9001092A3
:10077000330110923201909331018093300108953A
:10078000DF92EF92FF920F931F93CF93DF93D82EB8
:100790008A017B01E40EF51EEB01CE15DF0571F039
:1007A000D7FE03C0FE01849101C088810E94DC0154
:1007B00021968111F2CF8FEF9FEF01C0C801DF9129
:1007C000CF911F910F91FF90EF90DF900895BF920E
:1007D000CF92DF92EF92FF920F931F93CF93DF930D
:1007E0006C018B01EB019BEFB92E2097C1F07E01CC
:1007F000C134D1051CF080E4E82EF12C8091E80092
:1008000082FFFCCFC8018C1B9D0B6E2D8C0D9D1D96
:100810000E94CF01B092E800CE19DF09E6CFC801EF
:10082000DF91CF911F910F91FF90EF90DF90CF90CC
:10083000BF9008951F920F920FB60F921124CF927E
:10084000DF92EF92FF920F931F932F933F934F935B
:100850005F936F937F938F939F93AF93BF93EF9328
:10086000FF93CF93DF93CDB7DEB76C97DEBFCDBFDD
:100870001092E9008091E80083FF16C168E0CE0184
:1008800045960E94CF0182EF8093E8008D8987FF13
:1008900005C09091E80090FFFCCF03C09EEF9093BD
:1008A000E800982F907609F0E3C09E892F89188D73
:1008B00091110CC0803829F4809135018093F100AA
:1008C00002C01092F1001092F100E7C0422F50E0F8
:1008D000512B913051F48111E0C04130510509F0A4
:1008E000DCC0809135018D7F0BC0933061F48111A4
:1008F000D4C04130510509F0D0C0809135018260EB
:1009000080933501CAC0953041F48091E80080FFA2
:10091000FCCF20682093E300C0C0963009F07EC071
:10092000EB8CFC8C123069F580E090E00E94B503FE
:100930000E946A0299E09E012F5F3F4F6901F90111
:10094000292F11922A95E9F799831A8391E09E83C2
:1009500090EA98879AEF998720913201309133017C
:10096000275F3F4F3C832B838D83C7010E94B503D4
:1009700049E050E0B60180E00E94C0030E946A0294
:100980008CC0C7010E94B5030E94AB07BE016B5E1D
:100990007F4F0E944F07009719F00CF07EC081C076
:1009A000113061F1133009F07CC08F89882349F13F
:1009B000823029F440E86CE086EC90E006C081309B
:1009C00039F440E867E08EEB90E00E940A0263C0D1
:1009D000833009F066C00E94AB078E010F5F1F4F86
:1009E000B8010E946E07F80101900020E9F73197E5
:1009F000BF01601B710B40E0C801E7CF6CEA70E0FB
:100A000002C063ED70E06115710509F44AC0FB0195
:100A1000449150E080E80E94C0033FC0973009F441
:100A200040C0983021F481E08093F10036C09930C5
:100A3000A1F58370B1F5E1E0F1E081E021E036E37A
:100A40009081992361F08093E9002093EB009191CC
:100A50009093EC003093ED008F5F873089F78EE73D
:100A60008093EA001092EA008F898093360115C0C6
:100A70008B8D9C8D0E94B503898D811105C0CE019F
:100A800045960E94890607C00E94AB07BE016B5EB7
:100A90007F4F0E948D07882321F08EEF8093E8001E
:100AA00003C081E28093EB006C960FB6F894DEBF32
:100AB0000FBECDBFDF91CF91FF91EF91BF91AF916D
:100AC0009F918F917F916F915F914F913F912F9166
:100AD0001F910F91FF90EF90DF90CF900F900FBE7E
:100AE0000F901F9018958093E9008091F200882361
:100AF00019F08AE38093E80008951F920F920FB6D1
:100B00000F9211242F933F934F935F936F937F9393
:100B10008F939F93AF93BF93CF93EF93FF93C09126
:100B2000E1008091E100837F8093E100C3FF0FC06B
:100B30001092E90081E08093EB001092EC0082E3D8
:100B40008093ED001092360188E08093F000C2FFA0
:100B500019C083E00E94730580913801882339F021
:100B600080913801815080933801882389F18091E8
:100B70003701882339F08091370181508093370104
:100B8000882341F1C4FF10C08091E2008E7E816015
:100B90008093E2008091E1008F7E8093E10080915C
:100BA00034018E7E806111C0C0FF16C08091E200CA
:100BB0008E7E80618093E2008091E1008E7E809342
:100BC000E100809134018E7E81608093340104C005
:100BD0005D9ACDCF289AD6CFFF91EF91CF91BF915B
:100BE000AF919F918F917F916F915F914F913F91C5
:100BF0002F910F900FBE0F901F90189510923601F5
:100C000010923501109234010E9447028091E10058
:100C10008E7E8093E1008DE08093E200559A209AC9
:100C2000EEEFFFE7859194918B3F9C4D19F481E0A5
:100C30008093890108950895CF93DF931F92CDB7D4
:100C4000DEB76983DC01ED91FC910280F381E02D38
:100C500041E050E0BE016F5F7F4F09950F90DF913B
:100C6000CF910895CF93DF93EC018C859D8597FFFD
:100C700005C082E00E94DE029D878C878C859D8561
:100C8000DF91CF91089583E00E94F50290E00895EE
:100C900083E00C947305FC018485958597FD06C05F
:100CA00082E00E94880290E00196089582E00E940E
:100CB000880290E00895FC018485958597FD05C024
:100CC0002FEF3FEF35872487089582E00C94DE02F2
:100CD000CF93DF93EC0180911201882331F083E000
:100CE0000E940F031816190634F081E090E09B83F0
:100CF0008A8380E090E0DF91CF910895FC0190819C
:100D00009E5F908342E450E067ED70E080E80C94D1
:100D1000C003FC0181819081913A59F4813209F03C
:100D200048C047E050E06BE071E080E00E94C00303
:100D300076C09132F1F5833291F49381892F90E05E
:100D4000982F88272281822BA0E0B0E080930701B2
:100D500090930801A0930901B0930A0160C080320A
:100D600039F467E070E08BE091E00E94E70306C091
:100D7000823209F054C082818093120180918901EE
:100D8000882319F0EEEFFAE002C0E0E0F8E080918D
:100D90000B0190910C01A0910D01B0910E01803BCF
:100DA0009440A105B10539F48091120180FF1FC064
:100DB00002C080E008950FB6F894A8958091600075
:100DC000886180936000109260000FBEA895EE3F8E
:100DD0008AE0F80739F08091FE0A9091FF0A91832A
:100DE00080831DC01092FF0A1092FE0A18C0EE3FC9
:100DF0002AE0F20731F0808191819093FF0A80937D
:100E0000FE0A87E797E7918380839BE088E10FB62E
:100E1000F894A895809360000FBE9093600081E0E5
:100E20000895E9E3F1E01382128288EE93E0A0E0F6
:100E3000B0E084839583A683B78387E191E09183B3
:100E400080838FEF9FEF958784870895EF92FF92BD
:100E50000F931F93CF93DF937B01FC01C281D3815A
:100E600000E010E0209781F0E881F9810280F381B1
:100E7000E02DB701CE01099597FD08C0080F191F95
:100E80000884D985C02DEECFC80102C08FEF9FEF37
:100E9000DF91CF911F910F91FF90EF9008950F93E5
:100EA0001F93CF93DF938B01FC01C281D3812097E5
:100EB00071F0E881F9810480F581E02DB801CE015F
:100EC0000995009731F40884D985C02DF0CF80E0D2
:100ED00090E0DF91CF911F910F9108950F931F9391
:100EE000CF93DF938B01FC01C281D381209771F0F6
:100EF000E881F9810680F781E02DB801CE010995DE
:100F0000080F111D0884D985C02DF0CFF80110827B
:100F1000DF91CF911F910F9108950F931F93CF935E
:100F2000DF938B01FC01C281D381209771F0E881AE
:100F3000F9810190F081E02DB801CE010995811170
:100F400005C00884D985C02DF0CF80E0DF91CF9116
:100F50001F910F91089580918E0181110DC082E043
:100F600080938A0184E080938B0110928D0110920E
:100F70008C0181E080938E018AE891E00895EE0F64
:0E0F8000FF1F0590F491E02D0994F894FFCF27
:100F8E0000C18081000000FFFFFFFF00E1000000B4
:100F9E00000000000000001C066806430648064BD1
:060FAE00065B063206009E
:00000001FF
